:100000000C9434000C9451000C9451000C94510049
:100010000C9451000C9451000C9451000C9451001C
:100020000C9451000C9451000C9451000C9451000C
:100030000C9451000C9451000C9451000C945100FC
:100040000C9451000C9451000C9451000C945100EC
:100050000C9451000C9451000C9451000C945100DC
:100060000C9451000C94510011241FBECFEFD8E026
:10007000DEBFCDBF11E0A0E0B1E0ECEBF8E002C0E4
:1000800005900D92A23CB107D9F721E0A2ECB1E0B6
:1000900001C01D92AA3CB207E1F70E945D000C94DA
:1000A0005C040C940000E0ECF0E0908195FFFDCF43
:1000B0008093C60080E090E00895E4ECF1E080E0F9
:1000C00091E093838283918380831092C50083E3C0
:1000D0008093C400E1ECF0E0808188618083E2ECF1
:1000E000F0E0808182608083ECE7F0E01082808124
:1000F00080648083808180628083EAE7F0E0808191
:100100008760808380818062808310927B00808101
:100110008068808380818860808380818064808320
:100120002FEF83ED90E3215080409040E1F700C035
:1001300000008EE091E00E946401EFEFF3ED20E318
:10014000E150F0402040E1F700C0000082E191E082
:100150000E9464018FEF93EDE0E381509040E04016
:10016000E1F700C000008FE191E00E946401FFEF21
:1001700023ED80E3F15020408040E1F700C0000013
:100180008CE291E00E9464019FEFEFE4F3EC915068
:10019000E040F040E1F700C000000F2EF9E7EF2E3D
:1001A000F12CF02D0AE010E0C8E8D1E0F7018081E1
:1001B0008093C3018AE491E00E946401FFEF23ED84
:1001C00080E3F15020408040E1F700C0000087E765
:1001D00091E00E9464019FEFE3EDF0E39150E04075
:1001E000F040E1F700C000008091C30190E09C0165
:1001F000220F331F220F331F220F331F820F931F33
:10020000B8010E942601605E7F4F7F936F93DF935A
:10021000CF930E944E019FEFE3EDF0E39150E04059
:10022000F040E1F700C0000085EB91E00E9464011E
:100230002FEF83ED90E3215080409040E1F700C024
:1002400000000F900F900F900F90B0CF97FB072EEC
:1002500016F4009407D077FD09D00E943A0107FCFC
:1002600005D03EF4909581959F4F089570956195C6
:100270007F4F0895AA1BBB1B51E107C0AA1FBB1FDC
:10028000A617B70710F0A61BB70B881F991F5A9522
:10029000A9F780959095BC01CD010895A0E0B0E04C
:1002A000E4E5F1E00C943504AE014B5F5F4FFA01D9
:1002B00061917191AF018091C6019091C7010E9437
:1002C0009401E2E00C9451040F931F93CF93DF93BA
:1002D000E091C601F091C701238121FF1BC08C0171
:1002E000D0E0C0E0F80181918F016091C60170916A
:1002F000C701DB011896ED91FC911997882331F025
:100300000995892B79F3DFEFCFEFECCF8AE00995E0
:10031000892B19F08FEF9FEF02C08D2F9C2FDF915B
:10032000CF911F910F910895ABE0B0E0EAE9F1E0C1
:100330000C9425046C017B018A01FC011782168252
:10034000838181FFCCC1CE0101963C01F6019381EE
:10035000F70193FD859193FF81917F01882309F433
:10036000BAC1853239F493FD859193FF81917F0164
:10037000853229F4B60190E00E948B03E7CF912CDF
:10038000212C312CFFE1F315D8F08B3279F038F4C1
:10039000803279F08332A1F4232D20611DC08D328B
:1003A00061F0803369F4232D216016C0832D8260B3
:1003B000382EE32DE4603E2E2AC0F32DF8601DC0D8
:1003C00037FC2DC020ED280F2A3040F08E32B9F4D2
:1003D00036FC81C1232D2064322E19C036FE06C0A2
:1003E0008AE0989E200D1124922E11C0EAE02E9EE4
:1003F000200D1124222EF32DF0623F2E08C08C36E2
:1004000021F4832D8068382E02C0883641F4F7012C
:1004100093FD859193FF81917F018111B3CF982F37
:100420009F7D9554933028F40C5F1F4F9FE3998371
:100430000DC0833631F0833771F0833509F059C030
:1004400021C0F801808189830E5F1F4F8824839427
:10045000912C530113C02801F2E04F0E511CF801FA
:10046000A080B18036FE03C0692D70E002C06FEF3E
:100470007FEFC5010E9480034C018201F32DFF77BD
:100480003F2E16C0280122E0420E511CF801A08028
:10049000B18036FE03C0692D70E002C06FEF7FEFC0
:1004A000C5010E9475034C01F32DF0683F2E8201B7
:1004B00033FC1BC0822D90E088169906B0F4B6017B
:1004C00080E290E00E948B032A94F4CFF50137FC80
:1004D000859137FE81915F01B60190E00E948B0308
:1004E00021102A9421E0821A91088114910471F755
:1004F000E8C0843611F0893641F5F80137FE07C0AF
:1005000060817181828193810C5F1F4F08C060817F
:100510007181072E000C880B990B0E5F1F4FF32D76
:10052000FF763F2E97FF09C0909580957095619555
:100530007F4F8F4F9F4FF0683F2E2AE030E0A3019E
:100540000E94C703882E861845C0853731F4232DB5
:100550002F7EB22E2AE030E025C0932D997FB92E50
:100560008F36C1F018F4883579F0B5C0803719F0AE
:10057000883721F0B0C0E92FE061BE2EB4FE0DC077
:10058000FB2DF460BF2E09C034FE0AC0292F26605F
:10059000B22E06C028E030E005C020E130E002C005
:1005A00020E132E0F801B7FE07C0608171818281ED
:1005B00093810C5F1F4F06C06081718180E090E0E5
:1005C0000E5F1F4FA3010E94C703882E8618FB2DC4
:1005D000FF773F2E36FE0DC0232D2E7FA22E8914CD
:1005E00058F434FE0BC032FC09C0832D8E7EA82E39
:1005F00005C0B82CA32C03C0B82C01C0B92CA4FE94
:100600000FC0FE01E80DF11D8081803321F49A2D89
:10061000997EA92E09C0A2FE06C0B394B39404C06B
:100620008A2D867809F0B394A3FC11C0A0FE06C001
:10063000B21488F4280C922C9B180EC0B21460F4EB
:10064000B60180E290E00E948B03B394F7CFB2141E
:1006500018F42B1802C0982C212CA4FE10C0B6014F
:1006600080E390E00E948B03A2FE17C0A1FC03C0B0
:1006700088E790E002C088E590E0B6010CC08A2DC2
:10068000867859F0A1FE02C08BE201C080E2A7FC8F
:100690008DE2B60190E00E948B03891438F4B60114
:1006A00080E390E00E948B039A94F7CF8A94F30141
:1006B000E80DF11D8081B60190E00E948B0381104E
:1006C000F5CF222009F442CEB60180E290E00E94EC
:1006D0008B032A94F6CFF6018681978102C08FEFB3
:1006E0009FEF2B96E2E10C944104FC0105906150D0
:1006F00070400110D8F7809590958E0F9F1F089538
:10070000FC016150704001900110D8F780959095E0
:100710008E0F9F1F08950F931F93CF93DF93FB01BD
:10072000238121FD03C08FEF9FEF2CC022FF16C055
:1007300046815781248135814217530744F4A081B3
:10074000B1819D012F5F3F4F318320838C932681A0
:1007500037812F5F3F4F3783268314C08B01EC0115
:10076000FB010084F185E02D0995892BE1F6D80184
:1007700016968D919C911797019617969C938E9340
:100780001697CE01DF91CF911F910F910895FA0135
:10079000AA27283051F1203181F1E8946F936E7FC0
:1007A0006E5F7F4F8F4F9F4FAF4FB1E03ED0B4E0B1
:1007B0003CD0670F781F891F9A1FA11D680F791FF2
:1007C0008A1F911DA11D6A0F711D811D911DA11D03
:1007D00020D009F468943F912AE0269F1124301913
:1007E000305D3193DEF6CF010895462F4770405DAE
:1007F0004193B3E00FD0C9F7F6CF462F4F70405D5D
:100800004A3318F0495D31FD4052419302D0A9F7B7
:10081000EACFB4E0A6959795879577956795BA95B1
:10082000C9F700976105710508959B01AC010A2E77
:1008300006945795479537952795BA95C9F7620F4E
:10084000731F841F951FA01D08952F923F924F92F2
:100850005F926F927F928F929F92AF92BF92CF9250
:10086000DF92EF92FF920F931F93CF93DF93CDB759
:10087000DEB7CA1BDB0B0FB6F894DEBF0FBECDBFD1
:1008800009942A88398848885F846E847D848C84A2
:100890009B84AA84B984C884DF80EE80FD800C81AB
:1008A0001B81AA81B981CE0FD11D0FB6F894DEBF8E
:0C08B0000FBECDBFED010895F894FFCFFE
:1008BC000000000300000000530000000000415441
:1008CC000D0041542B43574D4F44453D310D0041D4
:1008DC00542B4349504D55583D310D0041542B4339
:1008EC00574A41503D22416C6578222C22303132DE
:1008FC0033343536373839220D0041542B434950A7
:10090C0053544152543D302C22544350222C2261DA
:10091C0070692E7468696E67737065616B2E636F96
:10092C006D222C38300D0041542B43495053454E09
:10093C00443D302C34340D00474554202F757064E1
:10094C006174653F6B65793D545359374533565740
:10095C0052513844364A4747266669656C64313DC6
:10096C0025750D0A0041542B434950434C4F5345B8
:02097C000D006C
:00000001FF
